{"abi":[{"type":"constructor","inputs":[{"name":"_usdc","type":"address","internalType":"address"}],"stateMutability":"nonpayable"},{"type":"function","name":"RATE","inputs":[],"outputs":[{"name":"","type":"uint256","internalType":"uint256"}],"stateMutability":"view"},{"type":"function","name":"swapETHForUSDC","inputs":[],"outputs":[],"stateMutability":"payable"},{"type":"function","name":"usdc","inputs":[],"outputs":[{"name":"","type":"address","internalType":"contract MockUSDC"}],"stateMutability":"view"}],"bytecode":{"object":"0x60a060405234801561000f575f5ffd5b506040516104d63803806104d6833981810160405281019061003191906100c9565b8073ffffffffffffffffffffffffffffffffffffffff1660808173ffffffffffffffffffffffffffffffffffffffff1681525050506100f4565b5f5ffd5b5f73ffffffffffffffffffffffffffffffffffffffff82169050919050565b5f6100988261006f565b9050919050565b6100a88161008e565b81146100b2575f5ffd5b50565b5f815190506100c38161009f565b92915050565b5f602082840312156100de576100dd61006b565b5b5f6100eb848285016100b5565b91505092915050565b6080516103c46101125f395f81816097015261011401526103c45ff3fe608060405260043610610033575f3560e01c80633e413bee14610037578063664e9704146100615780636996d7391461008b575b5f5ffd5b348015610042575f5ffd5b5061004b610095565b6040516100589190610217565b60405180910390f35b34801561006c575f5ffd5b506100756100b9565b6040516100829190610248565b60405180910390f35b6100936100bf565b005b7f000000000000000000000000000000000000000000000000000000000000000081565b610bb881565b5f3411610101576040517f08c379a00000000000000000000000000000000000000000000000000000000081526004016100f8906102bb565b60405180910390fd5b5f610bb8346101109190610306565b90507f000000000000000000000000000000000000000000000000000000000000000073ffffffffffffffffffffffffffffffffffffffff166340c10f1933836040518363ffffffff1660e01b815260040161016d929190610367565b5f604051808303815f87803b158015610184575f5ffd5b505af1158015610196573d5f5f3e3d5ffd5b5050505050565b5f73ffffffffffffffffffffffffffffffffffffffff82169050919050565b5f819050919050565b5f6101df6101da6101d58461019d565b6101bc565b61019d565b9050919050565b5f6101f0826101c5565b9050919050565b5f610201826101e6565b9050919050565b610211816101f7565b82525050565b5f60208201905061022a5f830184610208565b92915050565b5f819050919050565b61024281610230565b82525050565b5f60208201905061025b5f830184610239565b92915050565b5f82825260208201905092915050565b7f4d7573742073656e6420455448000000000000000000000000000000000000005f82015250565b5f6102a5600d83610261565b91506102b082610271565b602082019050919050565b5f6020820190508181035f8301526102d281610299565b9050919050565b7f4e487b71000000000000000000000000000000000000000000000000000000005f52601160045260245ffd5b5f61031082610230565b915061031b83610230565b925082820261032981610230565b915082820484148315176103405761033f6102d9565b5b5092915050565b5f6103518261019d565b9050919050565b61036181610347565b82525050565b5f60408201905061037a5f830185610358565b6103876020830184610239565b939250505056fea264697066735822122028ae537045353ada1ef5df8ed870ba9039590b47e7fb3a3203e1070b44b8fab464736f6c634300081e0033","linkReferences":{}},"methodIdentifiers":{"RATE()":"664e9704","swapETHForUSDC()":"6996d739","usdc()":"3e413bee"},"id":21}